:1000000000040020B10400000D0500000D050000F3
:100010000D0500000D0500000D05000000000000AA
:100020000000000000000000000000000D050000BE
:100030000D050000000000000D0500000D0500008A
:100040000D0500000D0500000D0500000D05000068
:100050000D0500000D0500000D0500000D05000058
:100060000D0500000D0500000D0500000D05000048
:100070000D0500000D0500000D0500000D05000038
:100080000D0500000D0500000D0500000D05000028
:100090000D0500000D0500000D0500000D05000018
:1000A0000D0500000D0500000D0500000D05000008
:1000B0000D0500000D0500000D0500000D050000F8
:1000C0000D0500000D0500000D0500000D050000E8
:1000D0000D0500000D0500000D0500000D050000D8
:1000E0000D0500000D0500000D0500000D050000C8
:1000F0000D0500000D0500000D0500000D050000B8
:1001000080B582B000AF1D4800F040F81C4800F0F8
:100110003DF81C48042100F0B5F91A48022100F00E
:100120009BF91848022101220A2300F08BF80223D0
:100130007B601448022100F069F938603B68002BAD
:1001400013D17A68104B1340002B03DA013B63F0A4
:1001500001030133012B08D10A480421FB2200F0DE
:1001600067F97B6801337B6004E0064804210422C0
:1001700000F05EF97B6801337B60DAE72000002045
:1001800010000020005002400100008080B483B0C5
:1001900000AF78607B681A0F0B4B53F822307A68F7
:1001A000110F094A52F8212011687A6890B27A68D2
:1001B00002F4F812120C00FA02F20A431A600C3729
:1001C000BD465DF8047B70473005000080B485B003
:1001D00000AFF8600B467A60FB72FB6803F5806342
:1001E0001A467B6803F00103002B06D0FB6803F579
:1001F00080631968FB7A0B4306E0FB6803F58063B4
:100200001968FB7ADB430B401360FB6803F58463DA
:100210001A467B6803F00203002B06D0FB6803F547
:1002200084631968FB7A0B4306E0FB6803F584637B
:100230001968FB7ADB430B4013601437BD465DF849
:10024000047B704780B485B000AFF8607A603B6093
:100250000B46FB72FB6803F5A0631A467B6803F04C
:100260000103002B06D0FB6803F5A0631968FB7A35
:100270000B4306E0FB6803F5A0631968FB7ADB43D8
:100280000B401360FB6803F204531A467B6803F0CB
:100290000203002B06D0FB6803F204531968FB7AB3
:1002A0000B4306E0FB6803F204531968FB7ADB4357
:1002B0000B401360FB6803F5A1631A467B6803F0EB
:1002C0000403002B06D0FB6803F5A1631968FB7AD1
:1002D0000B4306E0FB6803F5A1631968FB7ADB4377
:1002E0000B401360FB6803F5A3631A467B6803F0B9
:1002F0000803002B06D0FB6803F5A3631968FB7A9B
:100300000B4306E0FB6803F5A3631968FB7ADB4344
:100310000B401360FB6803F20C531A463B6803F072
:100320000103002B06D0FB6803F20C531968FB7A1B
:100330000B4306E0FB6803F20C531968FB7ADB43BE
:100340000B401360FB6803F5A2631A463B6803F099
:100350000203002B06D0FB6803F5A2631968FB7A41
:100360000B4306E0FB6803F5A2631968FB7ADB43E5
:100370000B401360FB6803F214531A463B6803F00A
:100380000403002B06D0FB6803F214531968FB7AB0
:100390000B4306E0FB6803F214531968FB7ADB4356
:1003A0000B401360FB6803F21C531A463B6803F0D2
:1003B0000803002B06D0FB6803F21C531968FB7A74
:1003C0000B4306E0FB6803F21C531968FB7ADB431E
:1003D0000B401360FB6803F5A5631A463B68002BCE
:1003E00006D1FB6803F5A5631968FB7A0B4306E0A9
:1003F000FB6803F5A5631968FB7ADB430B401360C8
:100400001437BD465DF8047B704700BF80B483B0ED
:1004100000AF78600B46FB70FB789B001A467B6848
:1004200013441B6818460C37BD465DF8047B7047C3
:1004300080B483B000AF786013460A46FA70BB7090
:10044000FB789B001A467B681344BA781A600C3715
:10045000BD465DF8047B704780B582B000AF786020
:100460000B46FB70FB78786819460022FFF7AEFE5A
:10047000FB787868194601220823FFF7E3FE083766
:10048000BD4680BD80B582B000AF78600B46FB7082
:10049000FB787868194601220823FFF7D3FEFB7822
:1004A000786819460122FFF791FE0837BD4680BDE6
:1004B00080B582B000AF104B7B60104B3B6007E013
:1004C0003B681A1D3A607A68111D796012681A60DB
:1004D0003A680B4B9A42F3D30A480B494FF000029B
:1004E0008842B8BF40F8042BFFF6FAAFFFF708FECA
:1004F0000837BD4680BD00BFB005000000000020E9
:1005000000000020000000200000002080B400AFA8
:10051000FEE700BF10E00F4014E00F401CE00F406A
:1005200010E00F4040E00F4044E00F4048E00F4033
:1005300000E10F4004E10F4008E10F4010E10F40DF
:1005400014E10F4018E10F4020E10F4024E10F407B
:1005500028E10F4040420F0000201C0080841E0054
:1005600000802500999E36000040380000093D00BB
:1005700000803E0000004B00404B4C0000204E002D
:10058000808D5B0000C05D000080700000127A006A
:1005900000007D0080969800001BB7000080BB0023
:1005A000C0E8CE00647ADA000024F4000000FA000B
:00000001FF
